{
  "_format": "hh-sol-artifact-1",
  "contractName": "TaskContractMain",
  "sourceName": "contracts/TaskContractMain.sol",
  "abi": [
    {
      "anonymous": false,
      "inputs": [
        {
          "indexed": false,
          "internalType": "address",
          "name": "recipient",
          "type": "address"
        },
        {
          "indexed": false,
          "internalType": "uint256",
          "name": "taskId",
          "type": "uint256"
        }
      ],
      "name": "AddTask",
      "type": "event"
    },
    {
      "anonymous": false,
      "inputs": [
        {
          "indexed": false,
          "internalType": "uint256",
          "name": "taskId",
          "type": "uint256"
        },
        {
          "indexed": false,
          "internalType": "bool",
          "name": "isDeleted",
          "type": "bool"
        }
      ],
      "name": "DeleteTask",
      "type": "event"
    },
    {
      "inputs": [
        {
          "internalType": "string",
          "name": "taskText",
          "type": "string"
        },
        {
          "internalType": "bool",
          "name": "isDeleted",
          "type": "bool"
        }
      ],
      "name": "addTask",
      "outputs": [],
      "stateMutability": "nonpayable",
      "type": "function"
    },
    {
      "inputs": [
        {
          "internalType": "uint256",
          "name": "taskId",
          "type": "uint256"
        },
        {
          "internalType": "bool",
          "name": "isDeleted",
          "type": "bool"
        }
      ],
      "name": "deleteTask",
      "outputs": [],
      "stateMutability": "nonpayable",
      "type": "function"
    },
    {
      "inputs": [],
      "name": "getTasks",
      "outputs": [
        {
          "components": [
            {
              "internalType": "uint256",
              "name": "id",
              "type": "uint256"
            },
            {
              "internalType": "string",
              "name": "taskText",
              "type": "string"
            },
            {
              "internalType": "bool",
              "name": "isDeleted",
              "type": "bool"
            }
          ],
          "internalType": "struct TaskContractMain.Task[]",
          "name": "",
          "type": "tuple[]"
        }
      ],
      "stateMutability": "view",
      "type": "function"
    },
    {
      "inputs": [],
      "name": "getTasksLength",
      "outputs": [
        {
          "internalType": "uint256",
          "name": "",
          "type": "uint256"
        }
      ],
      "stateMutability": "view",
      "type": "function"
    }
  ],
  "bytecode": "0x608060405234801561001057600080fd5b50610fb8806100206000396000f3fe608060405234801561001057600080fd5b506004361061004c5760003560e01c806304a87e381461005157806320df45811461006f578063aaba29071461008b578063c1419a04146100a7575b600080fd5b6100596100c5565b60405161006691906108d3565b60405180910390f35b61008960048036038101906100849190610a6a565b6103bc565b005b6100a560048036038101906100a09190610af2565b61050c565b005b6100af610691565b6040516100bc9190610b41565b60405180910390f35b606060008060003373ffffffffffffffffffffffffffffffffffffffff1673ffffffffffffffffffffffffffffffffffffffff168152602001908152602001600020805480602002602001604051908101604052809291908181526020016000905b8282101561021057838290600052602060002090600302016040518060600160405290816000820154815260200160018201805461016490610b8b565b80601f016020809104026020016040519081016040528092919081815260200182805461019090610b8b565b80156101dd5780601f106101b2576101008083540402835291602001916101dd565b820191906000526020600020905b8154815290600101906020018083116101c057829003601f168201915b505050505081526020016002820160009054906101000a900460ff16151515158152505081526020019060010190610127565b5050505090506000815167ffffffffffffffff81111561023357610232610913565b5b60405190808252806020026020018201604052801561026c57816020015b6102596106da565b8152602001906001900390816102515790505b5090506000805b8351811015610301576000151584828151811061029357610292610bbc565b5b6020026020010151604001511515036102ee578381815181106102b9576102b8610bbc565b5b60200260200101518383815181106102d4576102d3610bbc565b5b602002602001018190525081806102ea90610c1a565b9250505b80806102f990610c1a565b915050610273565b5060008167ffffffffffffffff81111561031e5761031d610913565b5b60405190808252806020026020018201604052801561035757816020015b6103446106da565b81526020019060019003908161033c5790505b50905060005b828110156103b15783818151811061037857610377610bbc565b5b602002602001015182828151811061039357610392610bbc565b5b602002602001018190525080806103a990610c1a565b91505061035d565b508094505050505090565b60008060003373ffffffffffffffffffffffffffffffffffffffff1673ffffffffffffffffffffffffffffffffffffffff1681526020019081526020016000208054905090506000604051806060016040528083815260200185815260200184151581525090506000803373ffffffffffffffffffffffffffffffffffffffff1673ffffffffffffffffffffffffffffffffffffffff1681526020019081526020016000208190806001815401808255809150506001900390600052602060002090600302016000909190919091506000820151816000015560208201518160010190816104aa9190610e0e565b5060408201518160020160006101000a81548160ff02191690831515021790555050507f1f54e1ba1832d428fbd7e7792beaf62b1fc5a382c207ffd614209c1413e94fda33836040516104fe929190610f21565b60405180910390a150505050565b60008060003373ffffffffffffffffffffffffffffffffffffffff1673ffffffffffffffffffffffffffffffffffffffff16815260200190815260200160002080549050905060005b8181101561068b57836000803373ffffffffffffffffffffffffffffffffffffffff1673ffffffffffffffffffffffffffffffffffffffff16815260200190815260200160002082815481106105ae576105ad610bbc565b5b9060005260206000209060030201600001540361067857826000803373ffffffffffffffffffffffffffffffffffffffff1673ffffffffffffffffffffffffffffffffffffffff168152602001908152602001600020828154811061061657610615610bbc565b5b906000526020600020906003020160020160006101000a81548160ff0219169083151502179055507ff88a35c3d2016c409a46570b994a17b408dbc83c14a03f521512d50b85386d06848460405161066f929190610f59565b60405180910390a15b808061068390610c1a565b915050610555565b50505050565b60008060003373ffffffffffffffffffffffffffffffffffffffff1673ffffffffffffffffffffffffffffffffffffffff16815260200190815260200160002080549050905090565b604051806060016040528060008152602001606081526020016000151581525090565b600081519050919050565b600082825260208201905092915050565b6000819050602082019050919050565b6000819050919050565b61073c81610729565b82525050565b600081519050919050565b600082825260208201905092915050565b60005b8381101561077c578082015181840152602081019050610761565b60008484015250505050565b6000601f19601f8301169050919050565b60006107a482610742565b6107ae818561074d565b93506107be81856020860161075e565b6107c781610788565b840191505092915050565b60008115159050919050565b6107e7816107d2565b82525050565b60006060830160008301516108056000860182610733565b506020830151848203602086015261081d8282610799565b915050604083015161083260408601826107de565b508091505092915050565b600061084983836107ed565b905092915050565b6000602082019050919050565b6000610869826106fd565b6108738185610708565b93508360208202850161088585610719565b8060005b858110156108c157848403895281516108a2858261083d565b94506108ad83610851565b925060208a01995050600181019050610889565b50829750879550505050505092915050565b600060208201905081810360008301526108ed818461085e565b905092915050565b6000604051905090565b600080fd5b600080fd5b600080fd5b600080fd5b7f4e487b7100000000000000000000000000000000000000000000000000000000600052604160045260246000fd5b61094b82610788565b810181811067ffffffffffffffff8211171561096a57610969610913565b5b80604052505050565b600061097d6108f5565b90506109898282610942565b919050565b600067ffffffffffffffff8211156109a9576109a8610913565b5b6109b282610788565b9050602081019050919050565b82818337600083830152505050565b60006109e16109dc8461098e565b610973565b9050828152602081018484840111156109fd576109fc61090e565b5b610a088482856109bf565b509392505050565b600082601f830112610a2557610a24610909565b5b8135610a358482602086016109ce565b91505092915050565b610a47816107d2565b8114610a5257600080fd5b50565b600081359050610a6481610a3e565b92915050565b60008060408385031215610a8157610a806108ff565b5b600083013567ffffffffffffffff811115610a9f57610a9e610904565b5b610aab85828601610a10565b9250506020610abc85828601610a55565b9150509250929050565b610acf81610729565b8114610ada57600080fd5b50565b600081359050610aec81610ac6565b92915050565b60008060408385031215610b0957610b086108ff565b5b6000610b1785828601610add565b9250506020610b2885828601610a55565b9150509250929050565b610b3b81610729565b82525050565b6000602082019050610b566000830184610b32565b92915050565b7f4e487b7100000000000000000000000000000000000000000000000000000000600052602260045260246000fd5b60006002820490506001821680610ba357607f821691505b602082108103610bb657610bb5610b5c565b5b50919050565b7f4e487b7100000000000000000000000000000000000000000000000000000000600052603260045260246000fd5b7f4e487b7100000000000000000000000000000000000000000000000000000000600052601160045260246000fd5b6000610c2582610729565b91507fffffffffffffffffffffffffffffffffffffffffffffffffffffffffffffffff8203610c5757610c56610beb565b5b600182019050919050565b60008190508160005260206000209050919050565b60006020601f8301049050919050565b600082821b905092915050565b600060088302610cc47fffffffffffffffffffffffffffffffffffffffffffffffffffffffffffffffff82610c87565b610cce8683610c87565b95508019841693508086168417925050509392505050565b6000819050919050565b6000610d0b610d06610d0184610729565b610ce6565b610729565b9050919050565b6000819050919050565b610d2583610cf0565b610d39610d3182610d12565b848454610c94565b825550505050565b600090565b610d4e610d41565b610d59818484610d1c565b505050565b5b81811015610d7d57610d72600082610d46565b600181019050610d5f565b5050565b601f821115610dc257610d9381610c62565b610d9c84610c77565b81016020851015610dab578190505b610dbf610db785610c77565b830182610d5e565b50505b505050565b600082821c905092915050565b6000610de560001984600802610dc7565b1980831691505092915050565b6000610dfe8383610dd4565b9150826002028217905092915050565b610e1782610742565b67ffffffffffffffff811115610e3057610e2f610913565b5b610e3a8254610b8b565b610e45828285610d81565b600060209050601f831160018114610e785760008415610e66578287015190505b610e708582610df2565b865550610ed8565b601f198416610e8686610c62565b60005b82811015610eae57848901518255600182019150602085019450602081019050610e89565b86831015610ecb5784890151610ec7601f891682610dd4565b8355505b6001600288020188555050505b505050505050565b600073ffffffffffffffffffffffffffffffffffffffff82169050919050565b6000610f0b82610ee0565b9050919050565b610f1b81610f00565b82525050565b6000604082019050610f366000830185610f12565b610f436020830184610b32565b9392505050565b610f53816107d2565b82525050565b6000604082019050610f6e6000830185610b32565b610f7b6020830184610f4a565b939250505056fea264697066735822122096286c826ed35f4e738471a1ddd8299e1d626fdc2888a2a9b1466fb730cfc6ac64736f6c63430008120033",
  "linkReferences": {},
  "deployedLinkReferences": {}
}